{
  "contractName": "DanContract",
  "abi": [
    {
      "anonymous": false,
      "inputs": [
        {
          "indexed": true,
          "internalType": "address",
          "name": "nodeAddress",
          "type": "address"
        },
        {
          "indexed": false,
          "internalType": "string",
          "name": "nodeName",
          "type": "string"
        }
      ],
      "name": "NodeAdded",
      "type": "event"
    },
    {
      "anonymous": false,
      "inputs": [
        {
          "indexed": true,
          "internalType": "address",
          "name": "nodeAddress",
          "type": "address"
        }
      ],
      "name": "NodeRemoved",
      "type": "event"
    },
    {
      "inputs": [
        {
          "internalType": "uint256",
          "name": "",
          "type": "uint256"
        }
      ],
      "name": "nodeAddresses",
      "outputs": [
        {
          "internalType": "address",
          "name": "",
          "type": "address"
        }
      ],
      "stateMutability": "view",
      "type": "function",
      "constant": true
    },
    {
      "inputs": [
        {
          "internalType": "address",
          "name": "",
          "type": "address"
        }
      ],
      "name": "nodes",
      "outputs": [
        {
          "internalType": "address",
          "name": "nodeAddress",
          "type": "address"
        },
        {
          "internalType": "string",
          "name": "nodeName",
          "type": "string"
        },
        {
          "internalType": "bool",
          "name": "active",
          "type": "bool"
        }
      ],
      "stateMutability": "view",
      "type": "function",
      "constant": true
    },
    {
      "inputs": [
        {
          "internalType": "string",
          "name": "_nodeName",
          "type": "string"
        }
      ],
      "name": "addNode",
      "outputs": [],
      "stateMutability": "nonpayable",
      "type": "function"
    },
    {
      "inputs": [],
      "name": "removeNode",
      "outputs": [],
      "stateMutability": "nonpayable",
      "type": "function"
    },
    {
      "inputs": [],
      "name": "getNodes",
      "outputs": [
        {
          "components": [
            {
              "internalType": "address",
              "name": "nodeAddress",
              "type": "address"
            },
            {
              "internalType": "string",
              "name": "nodeName",
              "type": "string"
            },
            {
              "internalType": "bool",
              "name": "active",
              "type": "bool"
            }
          ],
          "internalType": "struct DanContract.Node[]",
          "name": "",
          "type": "tuple[]"
        }
      ],
      "stateMutability": "view",
      "type": "function",
      "constant": true
    }
  ],
  "bytecode": "0x608060405234801561001057600080fd5b50610971806100206000396000f3fe608060405234801561001057600080fd5b50600436106100575760003560e01c8063189a5a171461005c5780638994dd8e14610087578063c4d770901461009c578063d0d3f5ba146100bc578063e29581aa146100c4575b600080fd5b61006f61006a366004610653565b6100d9565b60405161007e93929190610799565b60405180910390f35b61009a610095366004610681565b610191565b005b6100af6100aa366004610722565b6102ca565b60405161007e9190610785565b61009a6102f4565b6100cc61038a565b60405161007e91906107cf565b600060208190529081526040902080546001820180546001600160a01b039092169291610105906108c3565b80601f0160208091040260200160405190810160405280929190818152602001828054610131906108c3565b801561017e5780601f106101535761010080835404028352916020019161017e565b820191906000526020600020905b81548152906001019060200180831161016157829003601f168201915b5050506002909301549192505060ff1683565b336000908152602081905260409020546001600160a01b0316156101d05760405162461bcd60e51b81526004016101c79061086d565b60405180910390fd5b604080516060810182523380825260208083018581526001848601819052600093845283835294909220835181546001600160a01b0319166001600160a01b03909116178155915180519394929361022f93850192919091019061054f565b506040918201516002909101805491151560ff199092169190911790556001805480820182556000919091527fb10e2d527612073b26eecdfd717e6a320cf44b4afac2b0732d9fcbe2b7fa0cf60180546001600160a01b0319163390811790915590517f44fbdbcb1bc68a08f60b9d96b19ced4664733ae1a243dd27223dc840b04dbbb3906102bf90849061085a565b60405180910390a250565b600181815481106102da57600080fd5b6000918252602090912001546001600160a01b0316905081565b3360009081526020819052604090206002015460ff166103265760405162461bcd60e51b81526004016101c79061089a565b33600090815260208190526040812080546001600160a01b03191681559061035160018301826105d3565b50600201805460ff1916905560405133907fcfc24166db4bb677e857cacabd1541fb2b30645021b27c5130419589b84db52b90600090a2565b60015460609060009067ffffffffffffffff8111156103b957634e487b7160e01b600052604160045260246000fd5b6040519080825280602002602001820160405280156103f257816020015b6103df610612565b8152602001906001900390816103d75790505b50905060005b600154811015610549576000806001838154811061042657634e487b7160e01b600052603260045260246000fd5b60009182526020808320909101546001600160a01b0390811684528382019490945260409283019091208251606081019093528054909316825260018301805492939291840191610476906108c3565b80601f01602080910402602001604051908101604052809291908181526020018280546104a2906108c3565b80156104ef5780601f106104c4576101008083540402835291602001916104ef565b820191906000526020600020905b8154815290600101906020018083116104d257829003601f168201915b50505091835250506002919091015460ff161515602090910152825183908390811061052b57634e487b7160e01b600052603260045260246000fd5b60200260200101819052508080610541906108fe565b9150506103f8565b50905090565b82805461055b906108c3565b90600052602060002090601f01602090048101928261057d57600085556105c3565b82601f1061059657805160ff19168380011785556105c3565b828001600101855582156105c3579182015b828111156105c35782518255916020019190600101906105a8565b506105cf92915061063e565b5090565b5080546105df906108c3565b6000825580601f106105f1575061060f565b601f01602090049060005260206000209081019061060f919061063e565b50565b604051806060016040528060006001600160a01b03168152602001606081526020016000151581525090565b5b808211156105cf576000815560010161063f565b600060208284031215610664578081fd5b81356001600160a01b038116811461067a578182fd5b9392505050565b60006020808385031215610693578182fd5b823567ffffffffffffffff808211156106aa578384fd5b818501915085601f8301126106bd578384fd5b8135818111156106cf576106cf610925565b604051601f8201601f19168101850183811182821017156106f2576106f2610925565b6040528181528382018501881015610708578586fd5b818585018683013790810190930193909352509392505050565b600060208284031215610733578081fd5b5035919050565b60008151808452815b8181101561075f57602081850181015186830182015201610743565b818111156107705782602083870101525b50601f01601f19169290920160200192915050565b6001600160a01b0391909116815260200190565b6001600160a01b03841681526060602082018190526000906107bd9083018561073a565b90508215156040830152949350505050565b60208082528251828201819052600091906040908185019080840286018301878501865b8381101561084c57888303603f19018552815180516001600160a01b031684528781015160608986018190529061082c8287018261073a565b9289015115159589019590955250948701949250908601906001016107f3565b509098975050505050505050565b60006020825261067a602083018461073a565b6020808252601390820152724e6f646520616c72656164792065786973747360681b604082015260600190565b6020808252600f908201526e4e6f6465206e6f742061637469766560881b604082015260600190565b6002810460018216806108d757607f821691505b602082108114156108f857634e487b7160e01b600052602260045260246000fd5b50919050565b600060001982141561091e57634e487b7160e01b81526011600452602481fd5b5060010190565b634e487b7160e01b600052604160045260246000fdfea264697066735822122088ddaac87d4329f9cb96d3eef3772f59de7bd1e596805d946658ca197d43442164736f6c63430008000033",
  "immutableReferences": {},
  "source": "// SPDX-License-Identifier: MIT\npragma solidity ^0.8.0;\n\ncontract DanContract {\n    struct Node {\n        address nodeAddress;\n        string nodeName;\n        bool active;\n    }\n\n    mapping(address => Node) public nodes;\n    address[] public nodeAddresses;\n\n    event NodeAdded(address indexed nodeAddress, string nodeName);\n    event NodeRemoved(address indexed nodeAddress);\n\n    function addNode(string memory _nodeName) public {\n        require(nodes[msg.sender].nodeAddress == address(0), \"Node already exists\");\n        \n        nodes[msg.sender] = Node(msg.sender, _nodeName, true);\n        nodeAddresses.push(msg.sender);\n\n        emit NodeAdded(msg.sender, _nodeName);\n    }\n\n    function removeNode() public {\n        require(nodes[msg.sender].active, \"Node not active\");\n\n        delete nodes[msg.sender];\n\n        emit NodeRemoved(msg.sender);\n    }\n\n    function getNodes() public view returns (Node[] memory) {\n        Node[] memory allNodes = new Node[](nodeAddresses.length);\n        for (uint i = 0; i < nodeAddresses.length; i++) {\n            allNodes[i] = nodes[nodeAddresses[i]];\n        }\n        return allNodes;\n    }\n}\n",
  "sourcePath": "/home/navarch/decentralized-autonomous-network/contracts/DanContract.sol",
  "compiler": {
    "name": "solc",
    "version": "0.8.0+commit.c7dfd78e.Emscripten.clang"
  },
  "schemaVersion": "3.4.16",
  "updatedAt": "2024-10-09T18:25:35.531Z",
  "networkType": "ethereum",
  "devdoc": {
    "kind": "dev",
    "methods": {},
    "version": 1
  },
  "userdoc": {
    "kind": "user",
    "methods": {},
    "version": 1
  }
}